{
  "contractName": "Dog",
  "abi": [
    {
      "inputs": [
        {
          "internalType": "string",
          "name": "_name",
          "type": "string"
        }
      ],
      "stateMutability": "nonpayable",
      "type": "constructor"
    },
    {
      "inputs": [
        {
          "internalType": "string",
          "name": "str1",
          "type": "string"
        },
        {
          "internalType": "string",
          "name": "str2",
          "type": "string"
        }
      ],
      "name": "compare",
      "outputs": [
        {
          "internalType": "bool",
          "name": "",
          "type": "bool"
        }
      ],
      "stateMutability": "pure",
      "type": "function",
      "constant": true
    },
    {
      "inputs": [
        {
          "internalType": "string",
          "name": "_food",
          "type": "string"
        }
      ],
      "name": "eat",
      "outputs": [
        {
          "internalType": "string",
          "name": "",
          "type": "string"
        }
      ],
      "stateMutability": "view",
      "type": "function",
      "constant": true
    },
    {
      "inputs": [],
      "name": "getName",
      "outputs": [
        {
          "internalType": "string",
          "name": "",
          "type": "string"
        }
      ],
      "stateMutability": "view",
      "type": "function",
      "constant": true
    },
    {
      "inputs": [],
      "name": "sleep",
      "outputs": [
        {
          "internalType": "string",
          "name": "",
          "type": "string"
        }
      ],
      "stateMutability": "view",
      "type": "function",
      "constant": true
    },
    {
      "inputs": [],
      "name": "speak",
      "outputs": [
        {
          "internalType": "string",
          "name": "",
          "type": "string"
        }
      ],
      "stateMutability": "view",
      "type": "function",
      "constant": true
    }
  ],
  "bytecode": "0x60806040526040518060400160405280600581526020017f706c616e74000000000000000000000000000000000000000000000000000000815250600190816200004a9190620003a1565b506040518060400160405280600481526020017f6d6561740000000000000000000000000000000000000000000000000000000081525060029081620000919190620003a1565b506040518060400160405280600981526020017f63686f636f6c617465000000000000000000000000000000000000000000000081525060039081620000d89190620003a1565b50348015620000e657600080fd5b50604051620010963803806200109683398181016040528101906200010c9190620005ec565b8080600090816200011e9190620003a1565b5050506200063d565b600081519050919050565b7f4e487b7100000000000000000000000000000000000000000000000000000000600052604160045260246000fd5b7f4e487b7100000000000000000000000000000000000000000000000000000000600052602260045260246000fd5b60006002820490506001821680620001a957607f821691505b602082108103620001bf57620001be62000161565b5b50919050565b60008190508160005260206000209050919050565b60006020601f8301049050919050565b600082821b905092915050565b600060088302620002297fffffffffffffffffffffffffffffffffffffffffffffffffffffffffffffffff82620001ea565b620002358683620001ea565b95508019841693508086168417925050509392505050565b6000819050919050565b6000819050919050565b6000620002826200027c62000276846200024d565b62000257565b6200024d565b9050919050565b6000819050919050565b6200029e8362000261565b620002b6620002ad8262000289565b848454620001f7565b825550505050565b600090565b620002cd620002be565b620002da81848462000293565b505050565b5b818110156200030257620002f6600082620002c3565b600181019050620002e0565b5050565b601f82111562000351576200031b81620001c5565b6200032684620001da565b8101602085101562000336578190505b6200034e6200034585620001da565b830182620002df565b50505b505050565b600082821c905092915050565b6000620003766000198460080262000356565b1980831691505092915050565b600062000391838362000363565b9150826002028217905092915050565b620003ac8262000127565b67ffffffffffffffff811115620003c857620003c762000132565b5b620003d4825462000190565b620003e182828562000306565b600060209050601f83116001811462000419576000841562000404578287015190505b62000410858262000383565b86555062000480565b601f1984166200042986620001c5565b60005b8281101562000453578489015182556001820191506020850194506020810190506200042c565b868310156200047357848901516200046f601f89168262000363565b8355505b6001600288020188555050505b505050505050565b6000604051905090565b600080fd5b600080fd5b600080fd5b600080fd5b6000601f19601f8301169050919050565b620004c282620004a6565b810181811067ffffffffffffffff82111715620004e457620004e362000132565b5b80604052505050565b6000620004f962000488565b9050620005078282620004b7565b919050565b600067ffffffffffffffff8211156200052a576200052962000132565b5b6200053582620004a6565b9050602081019050919050565b60005b838110156200056257808201518184015260208101905062000545565b60008484015250505050565b6000620005856200057f846200050c565b620004ed565b905082815260208101848484011115620005a457620005a3620004a1565b5b620005b184828562000542565b509392505050565b600082601f830112620005d157620005d06200049c565b5b8151620005e38482602086016200056e565b91505092915050565b60006020828403121562000605576200060462000492565b5b600082015167ffffffffffffffff81111562000626576200062562000497565b5b6200063484828501620005b9565b91505092915050565b610a49806200064d6000396000f3fe608060405234801561001057600080fd5b50600436106100575760003560e01c8063133a473e1461005c57806317d7de7c1461007a5780633a96fdd71461009857806350d85315146100c8578063728d9b74146100e6575b600080fd5b610064610116565b604051610071919061069a565b60405180910390f35b610082610153565b60405161008f919061069a565b60405180910390f35b6100b260048036038101906100ad9190610805565b6101e5565b6040516100bf9190610898565b60405180910390f35b6100d061023e565b6040516100dd919061069a565b60405180910390f35b61010060048036038101906100fb9190610913565b61027b565b60405161010d919061069a565b60405180910390f35b60606040518060400160405280600d81526020017f5a2d7a2d7a2d7a2d7a2d7a2d7a00000000000000000000000000000000000000815250905090565b6060600080546101629061098f565b80601f016020809104026020016040519081016040528092919081815260200182805461018e9061098f565b80156101db5780601f106101b0576101008083540402835291602001916101db565b820191906000526020600020905b8154815290600101906020018083116101be57829003601f168201915b5050505050905090565b6000816040516020016101f891906109fc565b604051602081830303815290604052805190602001208360405160200161021f91906109fc565b6040516020818303038152906040528051906020012014905092915050565b60606040518060400160405280600981526020017f476166662d476166660000000000000000000000000000000000000000000000815250905090565b606061035583838080601f016020809104026020016040519081016040528093929190818152602001838380828437600081840152601f19601f82011690508083019250505050505050600180546102d29061098f565b80601f01602080910402602001604051908101604052809291908181526020018280546102fe9061098f565b801561034b5780601f106103205761010080835404028352916020019161034b565b820191906000526020600020905b81548152906001019060200180831161032e57829003601f168201915b50505050506101e5565b15610397576040518060400160405280600781526020017f4e6f6d2d6e6f6d000000000000000000000000000000000000000000000000008152509050610604565b61046f83838080601f016020809104026020016040519081016040528093929190818152602001838380828437600081840152601f19601f82011690508083019250505050505050600280546103ec9061098f565b80601f01602080910402602001604051908101604052809291908181526020018280546104189061098f565b80156104655780601f1061043a57610100808354040283529160200191610465565b820191906000526020600020905b81548152906001019060200180831161044857829003601f168201915b50505050506101e5565b156104b1576040518060400160405280600781526020017f4e6f6d2d6e6f6d000000000000000000000000000000000000000000000000008152509050610604565b61058983838080601f016020809104026020016040519081016040528093929190818152602001838380828437600081840152601f19601f82011690508083019250505050505050600380546105069061098f565b80601f01602080910402602001604051908101604052809291908181526020018280546105329061098f565b801561057f5780601f106105545761010080835404028352916020019161057f565b820191906000526020600020905b81548152906001019060200180831161056257829003601f168201915b50505050506101e5565b156105cb576040518060400160405280601081526020017f49742069732062616420666f72206d65000000000000000000000000000000008152509050610604565b6040518060400160405280600681526020017f466f6f6f6f21000000000000000000000000000000000000000000000000000081525090505b92915050565b600081519050919050565b600082825260208201905092915050565b60005b83811015610644578082015181840152602081019050610629565b60008484015250505050565b6000601f19601f8301169050919050565b600061066c8261060a565b6106768185610615565b9350610686818560208601610626565b61068f81610650565b840191505092915050565b600060208201905081810360008301526106b48184610661565b905092915050565b6000604051905090565b600080fd5b600080fd5b600080fd5b600080fd5b7f4e487b7100000000000000000000000000000000000000000000000000000000600052604160045260246000fd5b61071282610650565b810181811067ffffffffffffffff82111715610731576107306106da565b5b80604052505050565b60006107446106bc565b90506107508282610709565b919050565b600067ffffffffffffffff8211156107705761076f6106da565b5b61077982610650565b9050602081019050919050565b82818337600083830152505050565b60006107a86107a384610755565b61073a565b9050828152602081018484840111156107c4576107c36106d5565b5b6107cf848285610786565b509392505050565b600082601f8301126107ec576107eb6106d0565b5b81356107fc848260208601610795565b91505092915050565b6000806040838503121561081c5761081b6106c6565b5b600083013567ffffffffffffffff81111561083a576108396106cb565b5b610846858286016107d7565b925050602083013567ffffffffffffffff811115610867576108666106cb565b5b610873858286016107d7565b9150509250929050565b60008115159050919050565b6108928161087d565b82525050565b60006020820190506108ad6000830184610889565b92915050565b600080fd5b600080fd5b60008083601f8401126108d3576108d26106d0565b5b8235905067ffffffffffffffff8111156108f0576108ef6108b3565b5b60208301915083600182028301111561090c5761090b6108b8565b5b9250929050565b6000806020838503121561092a576109296106c6565b5b600083013567ffffffffffffffff811115610948576109476106cb565b5b610954858286016108bd565b92509250509250929050565b7f4e487b7100000000000000000000000000000000000000000000000000000000600052602260045260246000fd5b600060028204905060018216806109a757607f821691505b6020821081036109ba576109b9610960565b5b50919050565b600081905092915050565b60006109d68261060a565b6109e081856109c0565b93506109f0818560208601610626565b80840191505092915050565b6000610a0882846109cb565b91508190509291505056fea26469706673582212207109f29c5f6064f0baa5d17df23b5fd2b1281befb30508b331c5072cd8b6be3364736f6c63430008110033",
  "immutableReferences": {},
  "source": "\r\npragma solidity >0.8.2;\r\n\r\n\r\n\r\nabstract contract Animal{\r\n    string name;\r\n\r\n    constructor(string memory _name){\r\n        name = _name;\r\n    }\r\n\r\n    function getName() public view returns (string memory){\r\n        return Animal.name;\r\n    }\r\n\r\n    function eat(string calldata _food) virtual view public returns(string memory){\r\n        return \"Animals eats\";\r\n    }\r\n\r\n    function sleep() view public returns(string memory){\r\n        return \"Z-z-z-z-z-z-z\";\r\n    }\r\n\r\n    function speak() virtual view public returns (string memory){\r\n        return \"Animal speaks\";\r\n    }\r\n\r\n    function compare(string memory str1, string memory str2) public pure returns (bool) {\r\n        return keccak256(abi.encodePacked(str1)) == keccak256(abi.encodePacked(str2));\r\n    }\r\n}\r\nabstract contract Herbivore is Animal{\r\n\r\n    string canEat = \"plant\";\r\n    function eat(string calldata _food) override virtual view public returns(string memory){\r\n        if (compare(_food, canEat)){\r\n            return \"Nom-nom\";\r\n        } else return  \"Foooo!\";\r\n        \r\n\r\n    }\r\n\r\n}\r\n// \r\nabstract contract Omnivorous is Animal {\r\n    string canEat1 = \"plant\";\r\n    string canEat2 = \"meat\";\r\n    string chocolate = \"chocolate\";\r\n\r\n\r\n\r\n    function eat(string calldata _food) override virtual view public returns(string memory){\r\n        if (compare(_food, canEat1)){\r\n            return \"Nom-nom\";\r\n        } else if (compare(_food, canEat2)){\r\n            return \"Nom-nom\";\r\n        } else if (compare(_food, chocolate)){\r\n            return \"It is bad for me\";\r\n        } else return  \"Foooo!\";\r\n        \r\n\r\n}\r\n}\r\n\r\nabstract contract Predator is Animal {\r\n     string canEat = \"meat\";\r\n\r\n    function eat(string calldata _food) override virtual view public returns(string memory){\r\n        if (compare(_food, canEat)){\r\n            return \"Nom-nom\";\r\n        } else return  \"Foooo!\";\r\n        \r\n\r\n    }\r\n}\r\n\r\ncontract Tiger is Predator {\r\n    constructor(string memory _name) Animal(_name){\r\n  }\r\n\r\n\r\n\r\n  function speak() public view override virtual returns (string memory){\r\nreturn \"RRRRRRR-MEOW\";\r\n  }\r\n\r\n}\r\n\r\ncontract Wolf is Predator {\r\n    constructor(string memory _name) Animal(_name){\r\n  }\r\n\r\n\r\n\r\n  function speak() public view override virtual returns (string memory){\r\nreturn \"Woooof-Woooof\";\r\n  }\r\n\r\n}\r\n\r\n\r\ncontract Dog is Omnivorous {\r\n    constructor(string memory _name) Animal(_name){\r\n  }\r\n  function speak() public view override virtual returns (string memory){\r\nreturn \"Gaff-Gaff\";\r\n  }\r\n\r\n\r\n\r\n\r\n}\r\n\r\ncontract Cow is Herbivore {\r\n    constructor(string memory _name) Animal(_name){\r\n  }\r\n  function speak() public view override virtual returns (string memory){\r\nreturn \"Mooooooo!\";\r\n  }\r\n}\r\n\r\n\r\ncontract Horse is Herbivore {\r\n    constructor(string memory _name) Animal(_name){\r\n  }\r\n  function speak() public view override virtual returns (string memory){\r\nreturn \"Igogo!\";\r\n  }\r\n}\r\n\r\ncontract Farmer {\r\n\r\n    address[] public animals;\r\n\r\n    function addAnimal(address animalAddress) public  {\r\n        animals.push(animalAddress);\r\n }\r\n    function getAnimal(uint256 index) view public returns(Animal)\r\n    {return Animal(animals[index]);\r\n    }\r\n\r\n    function feedByIndex(uint256 index, string calldata food) view public returns (string memory){\r\nreturn getAnimal(index).eat(food);\r\n    }\r\n    function callByIndex(uint256 index) view public returns (string memory){\r\nreturn getAnimal(index).speak();\r\n    }\r\n\r\n        function feedByAddress(address animal, string calldata food) view public returns (string memory){\r\nreturn Animal(animal).eat(food);\r\n    }\r\n    function callByAddress(address animal) view public returns (string memory){\r\nreturn Animal(animal).speak();\r\n    }\r\n\r\n\r\n\r\n\r\n}\r\n\r\n",
  "sourcePath": "C:\\Users\\Nobody\\Desktop\\work\\15\\contracts\\AllContracts.sol",
  "compiler": {
    "name": "solc",
    "version": "0.8.17+commit.8df45f5f.Emscripten.clang"
  },
  "schemaVersion": "3.4.16",
  "updatedAt": "2023-10-23T12:42:29.856Z",
  "networkType": "ethereum",
  "devdoc": {
    "kind": "dev",
    "methods": {},
    "version": 1
  },
  "userdoc": {
    "kind": "user",
    "methods": {},
    "version": 1
  }
}